S00E00004C61622031312E7372656385
S1130000D0240020550800005108000051080000C9
S113001000000000000000000000000000000000DC
S11300200000000000000000000000005108000073
S1130030000000000000000051080000350D000021
S11300405108000051080000510800005108000048
S11300505108000051080000510800005108000038
S11300605108000051080000510800005108000028
S1130070310C000051080000510800005108000034
S11300805108000051080000510800005108000008
S113009051080000000000000000000051080000AA
S11300A051080000510800005108000051080000E8
S11300B00000000010B5064C2378002B07D1054B37
S11300C0002B02D0044800E000BF0123237010BDC0
S11300D03404002000000000D4100000084B10B5C8
S11300E0002B03D00749084800E000BF0748036815
S11300F0002B00D110BD064B002BFBD09847F9E72D
S11301000000000038040020D4100000D4100000C7
S11301100000000082B0054B5843C0080190019BC9
S11301205A1E0192002BFAD102B0704780BB000026
S113013010B511004000C0B21A00024B98470020CD
S113014010BDC0461D0C000030B589B0040010007D
S11301501F2B00D91F2301339DB26B4619702A004F
S1130160591C054B98476400E0B22A006946034BCA
S11301709847002009B030BD5D0E0000C50B00009B
S113018010B50E4C682363700023A3700C4BE3611D
S11301900C4B23620C4B636220000C4B98470C23DE
S11301A06371093BA371013BE3710F332371200099
S11301B0074B9847074B187010BDC0466C040020CD
S11301C03101000049010000150100006107000031
S11301D0010800005004002010B50023024A122137
S11301E06820024CA04710BDA0040020310100008B
S11301F000280DD0C369002B0DD0036A002B0DD04D
S1130200436A002B01D00020704701204042FBE7E5
S113021001204042F8E701204042F5E70120404236
S1130220F2E70222C27108234371102101710D39D2
S11302308171C27343730C33037300238373436864
S11302408360C368036170474A790F2A0CD84B7ADC
S11302509A420CD003780F218B4319000F231340CB
S11302600B4303700020704704204042FBE700204A
S1130270F9E7CB79022B08D8CA7A934208D00378DD
S11302807022934303700020704704204042FBE730
S11302900020F9E78A790C2A0CD88B7A9A420CD080
S11302A003780F218B4319000F2313400B43037072
S11302B00020704704204042FBE70020F9E74A7B16
S11302C00D2A0CD84B7C9A420CD003780F218B4317
S11302D019000F2313400B430370002070470420C0
S11302E04042FBE70020F9E7CB7B022B09D80178D9
S11302F0302291431A01302313400B430370002032
S1130300704704204042FBE78A7B042A0CD88B7C8C
S11303109A420CD0037807218B431900072313401A
S11303200B4303700020704704204042FBE7002089
S1130330F9E770B506001C1E17D0DD69002D17D033
S11303409B78012B0CD0607813000A003100A84779
S11303500500636A01209847002D0CD1280070BD68
S1130360802040420643F6B2EDE701256D42F5E7F1
S113037001256D42F2E702256D42EFE770B50400F6
S11303800D000B000222010040200B4EB047002854
S113039000D070BD29002000084B98470028F8D1F0
S11303A029002000064B98470028F2D1601C290040
S11303B0044B9847EDE7C0463303000049020000B0
S11303C0730200009502000070B504000D000B00DC
S11303D00222010042200B4EB047002800D070BD1D
S11303E029002000084B98470028F8D12900200054
S11303F0064B98470028F2D1601C2900044B98470B
S1130400EDE7C04633030000BF020000E90200002C
S11304100903000030B583B003006A46D41D0022EE
S113042022700132210002200D4DA8472278520883
S11304300F231340012B07D0022B08D0032B09D024
S1130440072B0AD003B030BD06204042FAE707204C
S11304504042F7E708204042F4E709204042F1E730
S113046033030000F8B5CE46474680B506008946FA
S113047090461F1E35D01C6A002C36D09B78012B69
S113048009D03B7A112B09D03B7C152B06D00024D4
S113049000231D001BE07E331E40F2E778784346BC
S11304A04A463100A04705007B6A0120984711E0C5
S11304B078784B461A19012331003D6AA847050094
S11304C00136F6B201207B6A98470134E4B2A3B244
S11304D04345EDD3002D0CD128000CBC9046994621
S11304E0F8BD01235B421D00F6E701235B421D00BA
S11304F0F2E702235B421D00EEE7000030B583B053
S1130500040001A8002303802100104B9847002811
S113051001D003B030BD2300012201A940300C4DAD
S1130520A8470028F5D163796372E379E372013057
S1130530636A984723000122694605314120044D2E
S1130540A8470028E5D1A379A372E2E77D03000060
S11305506504000030B583B0040001A800230380C3
S11305602100104B9847002801D003B030BD230070
S1130570012201A942300C4DA8470028F5D1637B24
S11305806374E37BE3740130636A984723000122B8
S1130590694605314320044DA8470028E5D1A37BD3
S11305A0A374E2E7C90300006504000070B582B0DB
S11305B005000C0000226B46DA710B0001320100C9
S11305C04020164EB047002806D12379122B05D0BF
S11305D02B785AB2002A17DB02B070BD2A786D332B
S11305E01A40FF3B13432B702300012229004030A3
S11305F00B4DA8470028EFD123000222694607319A
S11306005830074CA047E7E77F2213402B702300A4
S11306107E3A29004020024CA047DDE73303000066
S11306206504000030B583B0040000226B46DA7123
S113063002791300103BDBB2022B1DD8037A9A42D5
S11306401DD001006B46D81D0E4B9847051E02D0E5
S1130650280003B030BD211D230001227E200A4D55
S1130660A8470500237A102B02D023792372EFE7E1
S11306700520636A9847F8E704256D42E8E70025FA
S1130680E6E7C046AD0500006504000070B504004F
S1130690027B1300143BDBB2012B01D9172A1ED1B4
S11306A0237C9A421ED021000C31230001227E209B
S11306B00D4DA8470500237C142B05D0172B07D01C
S11306C0237B2374280070BD5120636A9847F7E7A1
S11306D0237B152BF4D10A20636A9847F0E704259D
S11306E06D42EFE70025EDE76504000030B583B007
S11306F00500B6226B46DA71002824D0436A002B29
S113070024D00300B53A694607317E20114CA04736
S113071004000F206B6A9847002C02D1AB78012BA0
S113072004D0002C0BD0200003B030BD2B000122DC
S1130730694607317F20084CA0470400F1E72800F0
S1130740064B9847EFE701246442ECE70124644236
S1130750E9E7C046650400003303000023020000FB
S113076030B583B00400164B9847002802D1A37813
S1130770012B03D0002809D003B030BD230001228F
S1130780694607317F300F4DA847F3E72300012264
S1130790694606310B4DA84700280BD16B4606333A
S11307A01B78D12B09D123702E33E3702000064B24
S11307B09847E1E703204042DEE703204042DBE7BD
S11307C0F101000033030000ED06000010B5041E23
S11307D00BD0436A002B0BD0074B9847002800D05E
S11307E010BD2000054B9847FAE701204042F7E787
S11307F001204042F4E7C046250600008D060000B3
S113080010B5041E15D0436A002B15D00C4B984725
S1130810002800D010BD20000A4B98470028F9D1C9
S11308202000094B98470028F4D12000074B984733
S1130830F0E701204042EDE701204042EAE7C046EC
S1130840FD04000055050000CD070000150400005C
S1130850FEE70000F8B5234A234B9A4209D0224B05
S1130860204A03E011681960043304321F498B42A3
S1130870F8D31F4B02E000221A6004331D4A93424E
S1130880F9D31D4AFF211D4B8B439360FD399023FF
S11308905B001B4AD1501B4AD3780325AB43022487
S11308A02343D370D3780C27BB4308263343D37038
S11308B0154B987B30229043202210439873997BE8
S11308C0B943314399739A7BAA4322439A730F4ADB
S11308D0516880230B4353600D4B98470D4B984749
S11308E0FEE7C046D41000000000002034040020BD
S11308F034040020CC04002000ED00E000000000DF
S11309000070004100500041004800410040004197
S11309106D0E0000C90C000055494A681E239A4315
S11309201C3B13434B60534A936908210B43936167
S1130930514B524A9A829A8A02210A439A824E4B16
S1130940DB689B07FBD501224D4B1A704C4B1B787F
S1130950DB0704D54A4B5B785BB2002BF6DB012244
S1130960474B9A60464B5B785BB2002BFADB454AF7
S1130970434B5A60424B5B785BB2002BFADB82221A
S1130980D2013F4B5A803E4B5B785BB2002BFADBC3
S1130990394A938C80218B439384374BDB68DB0685
S11309A0FBD5394A344BDA62334BDB68DB06FBD5C3
S11309B0314A938C35490B4393842F4BDB68DB0618
S11309C0FBD52D4A938C02210B439BB293842A4B73
S11309D0DB681B06FBD5284BDB685B06F7D5264B8B
S11309E0DB68DB06FBD50022254B9A60244B5B7841
S11309F05BB2002BFADB264A214B5A60204B5B7812
S1130A005BB2002BFADB1C4B196A224A114080228C
S1130A1052000A431A62196A802291431962184BE0
S1130A2003229A601C4A5A60154B5B785BB2002B18
S1130A30FADB104B00221A725A729A72DA72174A4F
S1130A40174B1A60174B1968CA0807231340164A34
S1130A501268D20E4901FF2001401B020A431343CE
S1130A60124A1385024A516880230B43536070472E
S1130A700040004100040040000800400C06000053
S1130A80000C004001050100B805FF7D040A0000C8
S1130A9000070300FFFCFFFF03060100006CDC02FB
S1130AA0000000202460800020608000004000429C
S1130AB0F0B53F4B8020000498605722995C0224D3
S1130AC0214399549861995C04208446604601430B
S1130AD09954995C0127394399543B201A5C0F219E
S1130AE011402022114319548021C90399605622D0
S1130AF09E5C26439E5499619D5C61460D439D54C2
S1130B00995C394399541A5C0F218A4322431A543D
S1130B10284A136A11310B431362274A274B5A8020
S1130B20274B1968022291431960254BDB69002B7E
S1130B30FBD1234A51680133FF330B435360204BED
S1130B40DB69002BFBD1E8221D4BDA601C4BDB690F
S1130B50002BFBD11A490A681C339A43083B134300
S1130B600B60174BDB69002BFBD1154B1B68144B37
S1130B70DB69002BFBD1124A116802330B4313606B
S1130B800F4BDB69002BFBD10D4A538B10210B4318
S1130B909BB253830A4BDB69002BFBD1084B9A7D34
S1130BA001210A439A759A7D02210A439A75F0BD80
S1130BB0004400410004004017400000000C0040C5
S1130BC00014004270B5144B58625B8B5B070BD466
S1130BD00023934218DACE5C0F4C28256655648BAB
S1130BE0600709D40133F4E70B4A5168C0239B0220
S1130BF00B435360002070BD074A5168C0239B0219
S1130C000B4353600020F6E703494868C0239B0266
S1130C1003434B60D0B2EEE70014004201231843B3
S1130C20C0B2024B5862D0B27047C04600140042B2
S1130C3010B51B4B1B7E9B0700D410BD184B1A7EAE
S1130C4002218A431A765A6816490A405A6059683A
S1130C508022D2020A435A605968C02292020A438F
S1130C605A60114C2278D2B22821595C0F4B995406
S1130C7023780133DBB223702078C0B206210C4BF9
S1130C809847C9B221702378002BD6D02178627896
S1130C90D2B22378DBB212316820064CA047CCE7ED
S1130CA000140042FFFFFBFF51040020A0040020B9
S1130CB0510E00003101000072B6024B186862B692
S1130CC07047C0465404002010B5114B9847114B8F
S1130CD09847114B9847114A114B53601148036AC6
S1130CE01B021B0AC02109060B4303620023936005
S1130CF0073313600C4B98470C4B58609B68C31A1E
S1130D00112BF7D9094B9860094B9847F2E7C04675
S1130D1019090000B10A00008101000010E000E0A0
S1130D207FBB000000ED00E0B90C0000540400207B
S1130D30D9010000024A1368013313607047C046AA
S1130D4054040020002243088B4274D303098B42CD
S1130D505FD3030A8B4244D3030B8B4228D3030C87
S1130D608B420DD3FF22090212BA030C8B4202D329
S1130D701212090265D0030B8B4219D300E0090A51
S1130D80C30B8B4201D3CB03C01A5241830B8B425A
S1130D9001D38B03C01A5241430B8B4201D34B0343
S1130DA0C01A5241030B8B4201D30B03C01A5241A8
S1130DB0C30A8B4201D3CB02C01A5241830A8B422D
S1130DC001D38B02C01A5241430A8B4201D34B0216
S1130DD0C01A5241030A8B4201D30B02C01A52417A
S1130DE0CDD2C3098B4201D3CB01C01A524183092E
S1130DF08B4201D38B01C01A524143098B4201D368
S1130E004B01C01A524103098B4201D30B01C01A92
S1130E105241C3088B4201D3CB00C01A524183080C
S1130E208B4201D38B00C01A524143088B4201D339
S1130E304B00C01A5241411A00D201465241104699
S1130E407047FFE701B5002000F006F802BDC04678
S1130E500029F7D076E770477047C0460B0010B5FD
S1130E600100180000F026F810BDC04670B50D4E04
S1130E700D4D0024AD1BAD1005D0A300F358013473
S1130E809847A542F9D100F013F9084E084D002403
S1130E90AD1BAD1005D0A300F35801349847A5420B
S1130EA0F9D170BDBC100000BC100000BC100000E3
S1130EB0C4100000F0B588420AD98B18984207D2B2
S1130EC0531E002A03D0CA5CC254013BFBD2F0BDBE
S1130ED005000F2A08D8002AF9D00023CC5CEC5472
S1130EE001339342FAD1F2E70B0003439B072DD160
S1130EF015000C000300103D2F0901373F01C719ED
S1130F0026681E6066685E60A6689E60E6681034A7
S1130F10DE6010339F42F3D10F24A54310354919E5
S1130F2014404519032C13D90023271FBE0801368A
S1130F30B600CC58EC500433B342FAD10326B7437D
S1130F403C1D09192D193240C7D1C0E70500C4E77B
S1130F502200C0E7034B10B5002B02D0024800F07A
S1130F6005F810BD000000007D0F000010B5010061
S1130F7000230022002000F01FF810BD70B5094BBB
S1130F80094CE41AA41009D0084AA518AD00ED18BC
S1130F902B68013C9847043D002CF9D100F092F8ED
S1130FA070BDC046D0100000D4100000FFFFFF3F0A
S1130FB07047C0467047C046F0B54E464546DE46CB
S1130FC05746E0B5364D83B00600286898460F00B2
S1130FD09146FFF7EDFF334B1C68A4235B00E058F8
S1130FE0002852D043681F2B13DC5A1C0192002E98
S1130FF028D1019A02339B0042601F502868FFF7F2
S1131000D9FF002003B03CBC90469946A246AB46AB
S1131010F0BD254B002B3DD0C820400000E000BFB0
S1131020002837D0A42200235200A1584360016055
S1131030A050403283500432835001330193002383
S1131040002ED6D09A00924682444A4688215446BD
S11310506250C4225200914681444A4687399940DD
S113106012688B460A4394464A46614611608422BC
S113107041465200A150022EBBD102005C468D3283
S1131080FF3211680C431460B3E720004D30FF3089
S1131090E050A7E72868FFF78DFF01204042B1E741
S11310A030040020AC100000000000000800002004
S11310B0F8B5C046F8BC08BC9E467047550F000002
S11310C0DD000000F8B5C046F8BC08BC9E46704779
S10710D0B500000063
S11310D440420F000000000000000000F402002061
S11310E45C030020C4030020000000000000000092
S11310F400000000000000000000000000000000E8
S113110400000000000000000000000000000000D7
S113111400000000000000000000000000000000C7
S113112400000000000000000000000000000000B7
S113113400000000000000000000000000000000A7
S11311440000000000000000000000000000000097
S11311540000000000000000000000000000000087
S11311640000000000000000000000000000000077
S11311740000000000000000000000000000000067
S113118401000000000000000E33CDAB34126DE604
S1131194ECDE05000B00000000000000000000006D
S11311A40000000000000000000000000000000037
S11311B40000000000000000000000000000000027
S11311C40000000000000000000000000000000017
S11311D40000000000000000000000000000000007
S1071504A804002013
S9030000FC
